{
  "_format": "hh-sol-artifact-1",
  "contractName": "MyEpicNFT",
  "sourceName": "Contracts/MyEpicNFT.sol",
  "abi": [
    {
      "inputs": [],
      "stateMutability": "nonpayable",
      "type": "constructor"
    },
    {
      "anonymous": false,
      "inputs": [
        {
          "indexed": true,
          "internalType": "address",
          "name": "owner",
          "type": "address"
        },
        {
          "indexed": true,
          "internalType": "address",
          "name": "approved",
          "type": "address"
        },
        {
          "indexed": true,
          "internalType": "uint256",
          "name": "tokenId",
          "type": "uint256"
        }
      ],
      "name": "Approval",
      "type": "event"
    },
    {
      "anonymous": false,
      "inputs": [
        {
          "indexed": true,
          "internalType": "address",
          "name": "owner",
          "type": "address"
        },
        {
          "indexed": true,
          "internalType": "address",
          "name": "operator",
          "type": "address"
        },
        {
          "indexed": false,
          "internalType": "bool",
          "name": "approved",
          "type": "bool"
        }
      ],
      "name": "ApprovalForAll",
      "type": "event"
    },
    {
      "anonymous": false,
      "inputs": [
        {
          "indexed": false,
          "internalType": "address",
          "name": "sender",
          "type": "address"
        },
        {
          "indexed": false,
          "internalType": "uint256",
          "name": "tokenId",
          "type": "uint256"
        }
      ],
      "name": "NewEpicNFTMinted",
      "type": "event"
    },
    {
      "anonymous": false,
      "inputs": [
        {
          "indexed": true,
          "internalType": "address",
          "name": "from",
          "type": "address"
        },
        {
          "indexed": true,
          "internalType": "address",
          "name": "to",
          "type": "address"
        },
        {
          "indexed": true,
          "internalType": "uint256",
          "name": "tokenId",
          "type": "uint256"
        }
      ],
      "name": "Transfer",
      "type": "event"
    },
    {
      "inputs": [
        {
          "internalType": "address",
          "name": "to",
          "type": "address"
        },
        {
          "internalType": "uint256",
          "name": "tokenId",
          "type": "uint256"
        }
      ],
      "name": "approve",
      "outputs": [],
      "stateMutability": "nonpayable",
      "type": "function"
    },
    {
      "inputs": [
        {
          "internalType": "address",
          "name": "owner",
          "type": "address"
        }
      ],
      "name": "balanceOf",
      "outputs": [
        {
          "internalType": "uint256",
          "name": "",
          "type": "uint256"
        }
      ],
      "stateMutability": "view",
      "type": "function"
    },
    {
      "inputs": [
        {
          "internalType": "uint256",
          "name": "tokenId",
          "type": "uint256"
        }
      ],
      "name": "getApproved",
      "outputs": [
        {
          "internalType": "address",
          "name": "",
          "type": "address"
        }
      ],
      "stateMutability": "view",
      "type": "function"
    },
    {
      "inputs": [
        {
          "internalType": "address",
          "name": "owner",
          "type": "address"
        },
        {
          "internalType": "address",
          "name": "operator",
          "type": "address"
        }
      ],
      "name": "isApprovedForAll",
      "outputs": [
        {
          "internalType": "bool",
          "name": "",
          "type": "bool"
        }
      ],
      "stateMutability": "view",
      "type": "function"
    },
    {
      "inputs": [],
      "name": "makeAnEpicNFT",
      "outputs": [],
      "stateMutability": "nonpayable",
      "type": "function"
    },
    {
      "inputs": [],
      "name": "name",
      "outputs": [
        {
          "internalType": "string",
          "name": "",
          "type": "string"
        }
      ],
      "stateMutability": "view",
      "type": "function"
    },
    {
      "inputs": [
        {
          "internalType": "uint256",
          "name": "tokenId",
          "type": "uint256"
        }
      ],
      "name": "ownerOf",
      "outputs": [
        {
          "internalType": "address",
          "name": "",
          "type": "address"
        }
      ],
      "stateMutability": "view",
      "type": "function"
    },
    {
      "inputs": [
        {
          "internalType": "uint256",
          "name": "tokenId",
          "type": "uint256"
        }
      ],
      "name": "randomFirst",
      "outputs": [
        {
          "internalType": "string",
          "name": "",
          "type": "string"
        }
      ],
      "stateMutability": "view",
      "type": "function"
    },
    {
      "inputs": [
        {
          "internalType": "uint256",
          "name": "tokenId",
          "type": "uint256"
        }
      ],
      "name": "randomSecond",
      "outputs": [
        {
          "internalType": "string",
          "name": "",
          "type": "string"
        }
      ],
      "stateMutability": "view",
      "type": "function"
    },
    {
      "inputs": [
        {
          "internalType": "uint256",
          "name": "tokenId",
          "type": "uint256"
        }
      ],
      "name": "randomThird",
      "outputs": [
        {
          "internalType": "string",
          "name": "",
          "type": "string"
        }
      ],
      "stateMutability": "view",
      "type": "function"
    },
    {
      "inputs": [
        {
          "internalType": "address",
          "name": "from",
          "type": "address"
        },
        {
          "internalType": "address",
          "name": "to",
          "type": "address"
        },
        {
          "internalType": "uint256",
          "name": "tokenId",
          "type": "uint256"
        }
      ],
      "name": "safeTransferFrom",
      "outputs": [],
      "stateMutability": "nonpayable",
      "type": "function"
    },
    {
      "inputs": [
        {
          "internalType": "address",
          "name": "from",
          "type": "address"
        },
        {
          "internalType": "address",
          "name": "to",
          "type": "address"
        },
        {
          "internalType": "uint256",
          "name": "tokenId",
          "type": "uint256"
        },
        {
          "internalType": "bytes",
          "name": "_data",
          "type": "bytes"
        }
      ],
      "name": "safeTransferFrom",
      "outputs": [],
      "stateMutability": "nonpayable",
      "type": "function"
    },
    {
      "inputs": [
        {
          "internalType": "address",
          "name": "operator",
          "type": "address"
        },
        {
          "internalType": "bool",
          "name": "approved",
          "type": "bool"
        }
      ],
      "name": "setApprovalForAll",
      "outputs": [],
      "stateMutability": "nonpayable",
      "type": "function"
    },
    {
      "inputs": [
        {
          "internalType": "bytes4",
          "name": "interfaceId",
          "type": "bytes4"
        }
      ],
      "name": "supportsInterface",
      "outputs": [
        {
          "internalType": "bool",
          "name": "",
          "type": "bool"
        }
      ],
      "stateMutability": "view",
      "type": "function"
    },
    {
      "inputs": [],
      "name": "symbol",
      "outputs": [
        {
          "internalType": "string",
          "name": "",
          "type": "string"
        }
      ],
      "stateMutability": "view",
      "type": "function"
    },
    {
      "inputs": [
        {
          "internalType": "uint256",
          "name": "tokenId",
          "type": "uint256"
        }
      ],
      "name": "tokenURI",
      "outputs": [
        {
          "internalType": "string",
          "name": "",
          "type": "string"
        }
      ],
      "stateMutability": "view",
      "type": "function"
    },
    {
      "inputs": [
        {
          "internalType": "address",
          "name": "from",
          "type": "address"
        },
        {
          "internalType": "address",
          "name": "to",
          "type": "address"
        },
        {
          "internalType": "uint256",
          "name": "tokenId",
          "type": "uint256"
        }
      ],
      "name": "transferFrom",
      "outputs": [],
      "stateMutability": "nonpayable",
      "type": "function"
    }
  ],
  "bytecode": "0x60806040526040518061020001604052806101dd8152602001620058fa6101dd9139600890805190602001906200003892919062001cdb565b506040518061036001604052806040518060400160405280600781526020017f52756e6e696e670000000000000000000000000000000000000000000000000081525081526020016040518060400160405280600781526020017f476c6964696e670000000000000000000000000000000000000000000000000081525081526020016040518060400160405280600681526020017f566962696e67000000000000000000000000000000000000000000000000000081525081526020016040518060400160405280600781526020017f52657374696e670000000000000000000000000000000000000000000000000081525081526020016040518060400160405280600881526020017f4472696e6b696e6700000000000000000000000000000000000000000000000081525081526020016040518060400160405280600681526020017f437279696e67000000000000000000000000000000000000000000000000000081525081526020016040518060400160405280600781526020017f576f726b696e670000000000000000000000000000000000000000000000000081525081526020016040518060400160405280600881526020017f4772696e64696e6700000000000000000000000000000000000000000000000081525081526020016040518060400160405280600881526020017f487573746c696e6700000000000000000000000000000000000000000000000081525081526020016040518060400160405280600781526020017f44726976696e670000000000000000000000000000000000000000000000000081525081526020016040518060400160405280600781526020017f53656c6c696e670000000000000000000000000000000000000000000000000081525081526020016040518060400160405280600881526020017f536b697070696e6700000000000000000000000000000000000000000000000081525081526020016040518060400160405280600881526020017f4275696c64696e6700000000000000000000000000000000000000000000000081525081526020016040518060400160405280600781526020017f47726f77696e670000000000000000000000000000000000000000000000000081525081526020016040518060400160405280600981526020017f427265617468696e67000000000000000000000000000000000000000000000081525081526020016040518060400160405280600681526020017f456174696e67000000000000000000000000000000000000000000000000000081525081526020016040518060400160405280600781526020017f46617274696e670000000000000000000000000000000000000000000000000081525081526020016040518060400160405280600981526020017f537570706c79696e67000000000000000000000000000000000000000000000081525081526020016040518060400160405280600581526020017f447265616d00000000000000000000000000000000000000000000000000000081525081526020016040518060400160405280600781526020017f427265617468650000000000000000000000000000000000000000000000000081525081526020016040518060400160405280600581526020017f42726f6b6500000000000000000000000000000000000000000000000000000081525081526020016040518060400160405280600581526020017f486170707900000000000000000000000000000000000000000000000000000081525081526020016040518060400160405280600481526020017f4c6f73740000000000000000000000000000000000000000000000000000000081525081526020016040518060400160405280600381526020017f57696e000000000000000000000000000000000000000000000000000000000081525081526020016040518060400160405280600581526020017f537461727400000000000000000000000000000000000000000000000000000081525081526020016040518060400160405280600c81526020017f556e6465727768656c6d6564000000000000000000000000000000000000000081525081526020016040518060400160405280600b81526020017f4f7665727768656c6d6564000000000000000000000000000000000000000000815250815250600990601b6200068e92919062001d6c565b506040518060a001604052806040518060400160405280600481526020017f20496e200000000000000000000000000000000000000000000000000000000081525081526020016040518060400160405280600881526020017f204163726f73732000000000000000000000000000000000000000000000000081525081526020016040518060400160405280600881526020017f204265796f6e642000000000000000000000000000000000000000000000000081525081526020016040518060400160405280600881526020017f2057697468696e2000000000000000000000000000000000000000000000000081525081526020016040518060400160405280600681526020017f204e656172200000000000000000000000000000000000000000000000000000815250815250600a906005620007d192919062001dd3565b5060405180610a6001604052806040518060400160405280600881526020017f427573687769636b00000000000000000000000000000000000000000000000081525081526020016040518060400160405280600d81526020017f45617374204e657720596f726b0000000000000000000000000000000000000081525081526020016040518060400160405280600c81526020017f436f6e65792049736c616e64000000000000000000000000000000000000000081525081526020016040518060400160405280600881526020017f466c61746275736800000000000000000000000000000000000000000000000081525081526020016040518060400160405280600981526020017f466c61746c616e6473000000000000000000000000000000000000000000000081525081526020016040518060400160405280600b81526020017f53756e736574205061726b00000000000000000000000000000000000000000081525081526020016040518060400160405280600981526020017f426179205269646765000000000000000000000000000000000000000000000081525081526020016040518060400160405280600981526020017f477261766573656e64000000000000000000000000000000000000000000000081525081526020016040518060400160405280600781526020017f4d6964776f6f640000000000000000000000000000000000000000000000000081525081526020016040518060400160405280600881526020017f43616e617273696500000000000000000000000000000000000000000000000081525081526020016040518060400160405280600b81526020017f42726f776e7376696c6c6500000000000000000000000000000000000000000081525081526020016040518060400160405280600581526020017f44756d626f00000000000000000000000000000000000000000000000000000081525081526020016040518060400160405280600881526020017f52656420486f6f6b00000000000000000000000000000000000000000000000081525081526020016040518060400160405280600781526020017f476f77616e75730000000000000000000000000000000000000000000000000081525081526020016040518060400160405280600b81526020017f466f727420477265656e6500000000000000000000000000000000000000000081525081526020016040518060400160405280600881526020017f4265642d5374757900000000000000000000000000000000000000000000000081525081526020016040518060400160405280600e81526020017f536865657073686561642042617900000000000000000000000000000000000081525081526020016040518060400160405280600d81526020017f43726f776e20486569676874730000000000000000000000000000000000000081525081526020016040518060400160405280600a81526020017f5061726b20536c6f70650000000000000000000000000000000000000000000081525081526020016040518060400160405280600781526020017f4a616d616963610000000000000000000000000000000000000000000000000081525081526020016040518060400160405280600d81526020017f526963686d6f6e642048696c6c0000000000000000000000000000000000000081525081526020016040518060400160405280600a81526020017f4f7a6f6e65205061726b0000000000000000000000000000000000000000000081525081526020016040518060400160405280600c81526020017f46617220526f636b61776179000000000000000000000000000000000000000081525081526020016040518060400160405280600c81526020017f466f726573742048696c6c73000000000000000000000000000000000000000081525081526020016040518060400160405280600c81526020017f517565656e73627269646765000000000000000000000000000000000000000081525081526020016040518060400160405280600c81526020017f486f77617264204265616368000000000000000000000000000000000000000081525081526020016040518060400160405280600881526020017f576f6f647369646500000000000000000000000000000000000000000000000081525081526020016040518060400160405280600981526020017f53756e6e7973696465000000000000000000000000000000000000000000000081525081526020016040518060400160405280600f81526020017f4a61636b736f6e2048656967687473000000000000000000000000000000000081525081526020016040518060400160405280600981526020017f4c617572656c746f6e000000000000000000000000000000000000000000000081525081526020016040518060400160405280600881526020017f466c757368696e6700000000000000000000000000000000000000000000000081525081526020016040518060400160405280600a81526020017f53742e20416c62616e730000000000000000000000000000000000000000000081525081526020016040518060400160405280600781526020017f4173746f7269610000000000000000000000000000000000000000000000000081525081526020016040518060400160405280600381526020017f4c4943000000000000000000000000000000000000000000000000000000000081525081526020016040518060400160405280600881526020017f537465696e77617900000000000000000000000000000000000000000000000081525081526020016040518060400160405280600e81526020017f517565656e732056696c6c61676500000000000000000000000000000000000081525081526020016040518060400160405280600681526020017f436f726f6e61000000000000000000000000000000000000000000000000000081525081526020016040518060400160405280600781526020017f426179736964650000000000000000000000000000000000000000000000000081525081526020016040518060400160405280600881526020017f456c6d687572737400000000000000000000000000000000000000000000000081525081526020016040518060400160405280600981526020017f5265676f205061726b000000000000000000000000000000000000000000000081525081526020016040518060400160405280600981526020017f576f6f64686176656e000000000000000000000000000000000000000000000081525081526020016040518060400160405280600b81526020017f4b65772047617264656e7300000000000000000000000000000000000000000081525081526020016040518060400160405280601381526020017f546865205570706572205765737420536964650000000000000000000000000081525081526020016040518060400160405280601381526020017f546865205570706572204561737420536964650000000000000000000000000081525081526020016040518060400160405280600481526020017f536f486f0000000000000000000000000000000000000000000000000000000081525081526020016040518060400160405280600481526020017f4e6f486f0000000000000000000000000000000000000000000000000000000081525081526020016040518060400160405280600681526020017f4861726c656d000000000000000000000000000000000000000000000000000081525081526020016040518060400160405280600781526020017f547269626563610000000000000000000000000000000000000000000000000081525081526020016040518060400160405280600381526020017f4c4553000000000000000000000000000000000000000000000000000000000081525081526020016040518060400160405280600881526020017f4772616d6572637900000000000000000000000000000000000000000000000081525081526020016040518060400160405280600781526020017f4d6964746f776e0000000000000000000000000000000000000000000000000081525081526020016040518060400160405280600c81526020017f576573742056696c6c616765000000000000000000000000000000000000000081525081526020016040518060400160405280600a81526020017f547572746c65204261790000000000000000000000000000000000000000000081525081526020016040518060400160405280600981526020017f596f726b76696c6c65000000000000000000000000000000000000000000000081525081526020016040518060400160405280600e81526020017f5370616e697368204861726c656d00000000000000000000000000000000000081525081526020016040518060400160405280600981526020017f4368696e61746f776e000000000000000000000000000000000000000000000081525081526020016040518060400160405280600c81526020017f42617474657279205061726b000000000000000000000000000000000000000081525081526020016040518060400160405280600a81526020017f4c656e6f782048696c6c0000000000000000000000000000000000000000000081525081526020016040518060400160405280600b81526020017f536f7574682042726f6e7800000000000000000000000000000000000000000081525081526020016040518060400160405280600781526020017f4d656c726f73650000000000000000000000000000000000000000000000000081525081526020016040518060400160405280600a81526020017f486967686272696467650000000000000000000000000000000000000000000081525081526020016040518060400160405280600781526020017f5472656d6f6e740000000000000000000000000000000000000000000000000081525081526020016040518060400160405280600c81526020017f45617374205472656d6f6e74000000000000000000000000000000000000000081525081526020016040518060400160405280600a81526020017f4d6f72726973616e69610000000000000000000000000000000000000000000081525081526020016040518060400160405280600c81526020017f43726f746f6e61205061726b000000000000000000000000000000000000000081525081526020016040518060400160405280600f81526020017f4772616e6420436f6e636f75727365000000000000000000000000000000000081525081526020016040518060400160405280600a81526020017f57657374204661726d730000000000000000000000000000000000000000000081525081526020016040518060400160405280600b81526020017f48756e747320506f696e7400000000000000000000000000000000000000000081525081526020016040518060400160405280600781526020017f466f726468616d0000000000000000000000000000000000000000000000000081525081526020016040518060400160405280600b81526020017f4b696e677362726964676500000000000000000000000000000000000000000081525081526020016040518060400160405280600981526020017f526976657264616c65000000000000000000000000000000000000000000000081525081526020016040518060400160405280600781526020017f4e6f72776f6f640000000000000000000000000000000000000000000000000081525081526020016040518060400160405280600e81526020017f57696c6c69616d7362726964676500000000000000000000000000000000000081525081526020016040518060400160405280600981526020017f57616b656669656c64000000000000000000000000000000000000000000000081525081526020016040518060400160405280600881526020017f576f6f646c61776e00000000000000000000000000000000000000000000000081525081526020016040518060400160405280600b81526020017f436173746c652048696c6c00000000000000000000000000000000000000000081525081526020016040518060400160405280600981526020017f536f756e6476696577000000000000000000000000000000000000000000000081525081526020016040518060400160405280600b81526020017f506f7274204d6f7272697300000000000000000000000000000000000000000081525081526020016040518060400160405280600a81526020017f4d6f747420486176656e0000000000000000000000000000000000000000000081525081526020016040518060400160405280600c81526020017f426564666f7264205061726b000000000000000000000000000000000000000081525081526020016040518060400160405280600a81526020017f436f2d6f7020436974790000000000000000000000000000000000000000000081525081526020016040518060400160405280600b81526020017f4d6f72726973205061726b00000000000000000000000000000000000000000081525081526020016040518060400160405280600b81526020017f5061726b63686573746572000000000000000000000000000000000000000000815250815250600b90605362001b0f92919062001e3a565b5034801562001b1d57600080fd5b506040518060400160405280601081526020017f4e465420436f6e666964656e7469616c000000000000000000000000000000008152506040518060400160405280600b81526020017f537175617265204e6f6972000000000000000000000000000000000000000000815250816000908051906020019062001ba292919062001cdb565b50806001908051906020019062001bbb92919062001cdb565b50505062001c096040518060400160405280601e81526020017f54686973206973206d79204e465420636f6e74726163742e20576f616821000081525062001c0f60201b620010be1760201c565b6200205b565b62001caf8160405160240162001c26919062001f6f565b6040516020818303038152906040527f41304fac000000000000000000000000000000000000000000000000000000007bffffffffffffffffffffffffffffffffffffffffffffffffffffffff19166020820180517bffffffffffffffffffffffffffffffffffffffffffffffffffffffff838183161783525050505062001cb260201b60201c565b50565b60008151905060006a636f6e736f6c652e6c6f679050602083016000808483855afa5050505050565b82805462001ce99062001fe5565b90600052602060002090601f01602090048101928262001d0d576000855562001d59565b82601f1062001d2857805160ff191683800117855562001d59565b8280016001018555821562001d59579182015b8281111562001d5857825182559160200191906001019062001d3b565b5b50905062001d68919062001ea1565b5090565b82805482825590600052602060002090810192821562001dc0579160200282015b8281111562001dbf57825182908051906020019062001dae92919062001cdb565b509160200191906001019062001d8d565b5b50905062001dcf919062001ec0565b5090565b82805482825590600052602060002090810192821562001e27579160200282015b8281111562001e2657825182908051906020019062001e1592919062001cdb565b509160200191906001019062001df4565b5b50905062001e36919062001ec0565b5090565b82805482825590600052602060002090810192821562001e8e579160200282015b8281111562001e8d57825182908051906020019062001e7c92919062001cdb565b509160200191906001019062001e5b565b5b50905062001e9d919062001ec0565b5090565b5b8082111562001ebc57600081600090555060010162001ea2565b5090565b5b8082111562001ee4576000818162001eda919062001ee8565b5060010162001ec1565b5090565b50805462001ef69062001fe5565b6000825580601f1062001f0a575062001f2b565b601f01602090049060005260206000209081019062001f2a919062001ea1565b5b50565b600062001f3b8262001f93565b62001f47818562001f9e565b935062001f5981856020860162001faf565b62001f64816200204a565b840191505092915050565b6000602082019050818103600083015262001f8b818462001f2e565b905092915050565b600081519050919050565b600082825260208201905092915050565b60005b8381101562001fcf57808201518184015260208101905062001fb2565b8381111562001fdf576000848401525b50505050565b6000600282049050600182168062001ffe57607f821691505b602082108114156200201557620020146200201b565b5b50919050565b7f4e487b7100000000000000000000000000000000000000000000000000000000600052602260045260246000fd5b6000601f19601f8301169050919050565b61388f806200206b6000396000f3fe608060405234801561001057600080fd5b506004361061010b5760003560e01c806370a08231116100a2578063c87b56dd11610071578063c87b56dd146102c8578063d18c0178146102f8578063de9d132f14610328578063e985e9c514610332578063f6d30ad7146103625761010b565b806370a082311461024257806395d89b4114610272578063a22cb46514610290578063b88d4fde146102ac5761010b565b806323b872dd116100de57806323b872dd146101aa57806342842e0e146101c65780636352211e146101e25780636c6e9674146102125761010b565b806301ffc9a71461011057806306fdde0314610140578063081812fc1461015e578063095ea7b31461018e575b600080fd5b61012a600480360381019061012591906124be565b610392565b6040516101379190613106565b60405180910390f35b610148610474565b6040516101559190613121565b60405180910390f35b61017860048036038101906101739190612510565b610506565b6040516101859190613076565b60405180910390f35b6101a860048036038101906101a39190612482565b61058b565b005b6101c460048036038101906101bf919061237c565b6106a3565b005b6101e060048036038101906101db919061237c565b610703565b005b6101fc60048036038101906101f79190612510565b610723565b6040516102099190613076565b60405180910390f35b61022c60048036038101906102279190612510565b6107d5565b6040516102399190613121565b60405180910390f35b61025c60048036038101906102579190612317565b6108f3565b6040516102699190613381565b60405180910390f35b61027a6109ab565b6040516102879190613121565b60405180910390f35b6102aa60048036038101906102a59190612446565b610a3d565b005b6102c660048036038101906102c191906123cb565b610a53565b005b6102e260048036038101906102dd9190612510565b610ab5565b6040516102ef9190613121565b60405180910390f35b610312600480360381019061030d9190612510565b610c07565b60405161031f9190613121565b60405180910390f35b610330610d25565b005b61034c60048036038101906103479190612340565b610f0c565b6040516103599190613106565b60405180910390f35b61037c60048036038101906103779190612510565b610fa0565b6040516103899190613121565b60405180910390f35b60007f80ac58cd000000000000000000000000000000000000000000000000000000007bffffffffffffffffffffffffffffffffffffffffffffffffffffffff1916827bffffffffffffffffffffffffffffffffffffffffffffffffffffffff1916148061045d57507f5b5e139f000000000000000000000000000000000000000000000000000000007bffffffffffffffffffffffffffffffffffffffffffffffffffffffff1916827bffffffffffffffffffffffffffffffffffffffffffffffffffffffff1916145b8061046d575061046c82611157565b5b9050919050565b60606000805461048390613620565b80601f01602080910402602001604051908101604052809291908181526020018280546104af90613620565b80156104fc5780601f106104d1576101008083540402835291602001916104fc565b820191906000526020600020905b8154815290600101906020018083116104df57829003601f168201915b5050505050905090565b6000610511826111c1565b610550576040517f08c379a0000000000000000000000000000000000000000000000000000000008152600401610547906132e1565b60405180910390fd5b6004600083815260200190815260200160002060009054906101000a900473ffffffffffffffffffffffffffffffffffffffff169050919050565b600061059682610723565b90508073ffffffffffffffffffffffffffffffffffffffff168373ffffffffffffffffffffffffffffffffffffffff161415610607576040517f08c379a00000000000000000000000000000000000000000000000000000000081526004016105fe90613341565b60405180910390fd5b8073ffffffffffffffffffffffffffffffffffffffff1661062661122d565b73ffffffffffffffffffffffffffffffffffffffff16148061065557506106548161064f61122d565b610f0c565b5b610694576040517f08c379a000000000000000000000000000000000000000000000000000000000815260040161068b90613221565b60405180910390fd5b61069e8383611235565b505050565b6106b46106ae61122d565b826112ee565b6106f3576040517f08c379a00000000000000000000000000000000000000000000000000000000081526004016106ea90613361565b60405180910390fd5b6106fe8383836113cc565b505050565b61071e83838360405180602001604052806000815250610a53565b505050565b6000806002600084815260200190815260200160002060009054906101000a900473ffffffffffffffffffffffffffffffffffffffff169050600073ffffffffffffffffffffffffffffffffffffffff168173ffffffffffffffffffffffffffffffffffffffff1614156107cc576040517f08c379a00000000000000000000000000000000000000000000000000000000081526004016107c390613261565b60405180910390fd5b80915050919050565b606060006108096107e584611628565b6040516020016107f59190612fcb565b6040516020818303038152906040526117d5565b9050600a805490508161081c919061369b565b9050600a8181548110610858577f4e487b7100000000000000000000000000000000000000000000000000000000600052603260045260246000fd5b90600052602060002001805461086d90613620565b80601f016020809104026020016040519081016040528092919081815260200182805461089990613620565b80156108e65780601f106108bb576101008083540402835291602001916108e6565b820191906000526020600020905b8154815290600101906020018083116108c957829003601f168201915b5050505050915050919050565b60008073ffffffffffffffffffffffffffffffffffffffff168273ffffffffffffffffffffffffffffffffffffffff161415610964576040517f08c379a000000000000000000000000000000000000000000000000000000000815260040161095b90613241565b60405180910390fd5b600360008373ffffffffffffffffffffffffffffffffffffffff1673ffffffffffffffffffffffffffffffffffffffff168152602001908152602001600020549050919050565b6060600180546109ba90613620565b80601f01602080910402602001604051908101604052809291908181526020018280546109e690613620565b8015610a335780601f10610a0857610100808354040283529160200191610a33565b820191906000526020600020905b815481529060010190602001808311610a1657829003601f168201915b5050505050905090565b610a4f610a4861122d565b8383611808565b5050565b610a64610a5e61122d565b836112ee565b610aa3576040517f08c379a0000000000000000000000000000000000000000000000000000000008152600401610a9a90613361565b60405180910390fd5b610aaf84848484611975565b50505050565b6060610ac0826111c1565b610aff576040517f08c379a0000000000000000000000000000000000000000000000000000000008152600401610af6906132c1565b60405180910390fd5b6000600660008481526020019081526020016000208054610b1f90613620565b80601f0160208091040260200160405190810160405280929190818152602001828054610b4b90613620565b8015610b985780601f10610b6d57610100808354040283529160200191610b98565b820191906000526020600020905b815481529060010190602001808311610b7b57829003601f168201915b505050505090506000610ba96119d1565b9050600081511415610bbf578192505050610c02565b600082511115610bf4578082604051602001610bdc929190612f25565b60405160208183030381529060405292505050610c02565b610bfd846119e8565b925050505b919050565b60606000610c3b610c1784611628565b604051602001610c279190613032565b6040516020818303038152906040526117d5565b905060098054905081610c4e919061369b565b905060098181548110610c8a577f4e487b7100000000000000000000000000000000000000000000000000000000600052603260045260246000fd5b906000526020600020018054610c9f90613620565b80601f0160208091040260200160405190810160405280929190818152602001828054610ccb90613620565b8015610d185780601f10610ced57610100808354040283529160200191610d18565b820191906000526020600020905b815481529060010190602001808311610cfb57829003601f168201915b5050505050915050919050565b6000610d316007611a8f565b90506000610d3e82610c07565b90506000610d4b836107d5565b90506000610d5884610fa0565b90506000838383604051602001610d7193929190612f49565b60405160208183030381529060405290506000600882604051602001610d98929190612f7a565b60405160208183030381529060405290506000610ddd83610db884611a9d565b604051602001610dc9929190612fed565b604051602081830303815290604052611a9d565b9050600081604051602001610df29190613054565b6040516020818303038152906040529050610e416040518060400160405280601581526020017f0a2d2d2d2d2d2d2d2d2d2d2d2d2d2d2d2d2d2d2d2d00000000000000000000008152506110be565b610e4a816110be565b610e886040518060400160405280601581526020017f2d2d2d2d2d2d2d2d2d2d2d2d2d2d2d2d2d2d2d2d0a00000000000000000000008152506110be565b610e923389611c5b565b610e9c8882611c79565b610ea66007611ced565b610ec96040518060600160405280602481526020016137f6602491398933611d03565b7febb98688741ffa4c7589bf325de30cf7becb63de567842e1ccdb6cb949fdc82c3389604051610efa9291906130dd565b60405180910390a15050505050505050565b6000600560008473ffffffffffffffffffffffffffffffffffffffff1673ffffffffffffffffffffffffffffffffffffffff16815260200190815260200160002060008373ffffffffffffffffffffffffffffffffffffffff1673ffffffffffffffffffffffffffffffffffffffff16815260200190815260200160002060009054906101000a900460ff16905092915050565b60606000610fd4610fb084611628565b604051602001610fc09190612fa9565b6040516020818303038152906040526117d5565b9050600b8054905081610fe7919061369b565b9050600b8181548110611023577f4e487b7100000000000000000000000000000000000000000000000000000000600052603260045260246000fd5b90600052602060002001805461103890613620565b80601f016020809104026020016040519081016040528092919081815260200182805461106490613620565b80156110b15780601f10611086576101008083540402835291602001916110b1565b820191906000526020600020905b81548152906001019060200180831161109457829003601f168201915b5050505050915050919050565b611154816040516024016110d29190613121565b6040516020818303038152906040527f41304fac000000000000000000000000000000000000000000000000000000007bffffffffffffffffffffffffffffffffffffffffffffffffffffffff19166020820180517bffffffffffffffffffffffffffffffffffffffffffffffffffffffff8381831617835250505050611da2565b50565b60007f01ffc9a7000000000000000000000000000000000000000000000000000000007bffffffffffffffffffffffffffffffffffffffffffffffffffffffff1916827bffffffffffffffffffffffffffffffffffffffffffffffffffffffff1916149050919050565b60008073ffffffffffffffffffffffffffffffffffffffff166002600084815260200190815260200160002060009054906101000a900473ffffffffffffffffffffffffffffffffffffffff1673ffffffffffffffffffffffffffffffffffffffff1614159050919050565b600033905090565b816004600083815260200190815260200160002060006101000a81548173ffffffffffffffffffffffffffffffffffffffff021916908373ffffffffffffffffffffffffffffffffffffffff160217905550808273ffffffffffffffffffffffffffffffffffffffff166112a883610723565b73ffffffffffffffffffffffffffffffffffffffff167f8c5be1e5ebec7d5bd14f71427d1e84f3dd0314c0f7b2291e5b200ac8c7c3b92560405160405180910390a45050565b60006112f9826111c1565b611338576040517f08c379a000000000000000000000000000000000000000000000000000000000815260040161132f90613201565b60405180910390fd5b600061134383610723565b90508073ffffffffffffffffffffffffffffffffffffffff168473ffffffffffffffffffffffffffffffffffffffff1614806113b257508373ffffffffffffffffffffffffffffffffffffffff1661139a84610506565b73ffffffffffffffffffffffffffffffffffffffff16145b806113c357506113c28185610f0c565b5b91505092915050565b8273ffffffffffffffffffffffffffffffffffffffff166113ec82610723565b73ffffffffffffffffffffffffffffffffffffffff1614611442576040517f08c379a000000000000000000000000000000000000000000000000000000000815260040161143990613301565b60405180910390fd5b600073ffffffffffffffffffffffffffffffffffffffff168273ffffffffffffffffffffffffffffffffffffffff1614156114b2576040517f08c379a00000000000000000000000000000000000000000000000000000000081526004016114a9906131c1565b60405180910390fd5b6114bd838383611dcb565b6114c8600082611235565b6001600360008573ffffffffffffffffffffffffffffffffffffffff1673ffffffffffffffffffffffffffffffffffffffff16815260200190815260200160002060008282546115189190613536565b925050819055506001600360008473ffffffffffffffffffffffffffffffffffffffff1673ffffffffffffffffffffffffffffffffffffffff168152602001908152602001600020600082825461156f9190613455565b92505081905550816002600083815260200190815260200160002060006101000a81548173ffffffffffffffffffffffffffffffffffffffff021916908373ffffffffffffffffffffffffffffffffffffffff160217905550808273ffffffffffffffffffffffffffffffffffffffff168473ffffffffffffffffffffffffffffffffffffffff167fddf252ad1be2c89b69c2b068fc378daa952ba7f163c4a11628f55a4df523b3ef60405160405180910390a4505050565b60606000821415611670576040518060400160405280600181526020017f300000000000000000000000000000000000000000000000000000000000000081525090506117d0565b600082905060005b600082146116a257808061168b90613652565b915050600a8261169b91906134ab565b9150611678565b60008167ffffffffffffffff8111156116e4577f4e487b7100000000000000000000000000000000000000000000000000000000600052604160045260246000fd5b6040519080825280601f01601f1916602001820160405280156117165781602001600182028036833780820191505090505b5090505b600085146117c95760018261172f9190613536565b9150600a8561173e919061369b565b603061174a9190613455565b60f81b818381518110611786577f4e487b7100000000000000000000000000000000000000000000000000000000600052603260045260246000fd5b60200101907effffffffffffffffffffffffffffffffffffffffffffffffffffffffffffff1916908160001a905350600a856117c291906134ab565b945061171a565b8093505050505b919050565b6000816040516020016117e89190612f0e565b6040516020818303038152906040528051906020012060001c9050919050565b8173ffffffffffffffffffffffffffffffffffffffff168373ffffffffffffffffffffffffffffffffffffffff161415611877576040517f08c379a000000000000000000000000000000000000000000000000000000000815260040161186e906131e1565b60405180910390fd5b80600560008573ffffffffffffffffffffffffffffffffffffffff1673ffffffffffffffffffffffffffffffffffffffff16815260200190815260200160002060008473ffffffffffffffffffffffffffffffffffffffff1673ffffffffffffffffffffffffffffffffffffffff16815260200190815260200160002060006101000a81548160ff0219169083151502179055508173ffffffffffffffffffffffffffffffffffffffff168373ffffffffffffffffffffffffffffffffffffffff167f17307eab39ab6107e8899845ad3d59bd9653f200f220920489ca2b5937696c31836040516119689190613106565b60405180910390a3505050565b6119808484846113cc565b61198c84848484611dd0565b6119cb576040517f08c379a00000000000000000000000000000000000000000000000000000000081526004016119c290613181565b60405180910390fd5b50505050565b606060405180602001604052806000815250905090565b60606119f3826111c1565b611a32576040517f08c379a0000000000000000000000000000000000000000000000000000000008152600401611a2990613321565b60405180910390fd5b6000611a3c6119d1565b90506000815111611a5c5760405180602001604052806000815250611a87565b80611a6684611628565b604051602001611a77929190612f25565b6040516020818303038152906040525b915050919050565b600081600001549050919050565b60606000825190506000811415611ac65760405180602001604052806000815250915050611c56565b60006003600283611ad79190613455565b611ae191906134ab565b6004611aed91906134dc565b90506000602082611afe9190613455565b67ffffffffffffffff811115611b3d577f4e487b7100000000000000000000000000000000000000000000000000000000600052604160045260246000fd5b6040519080825280601f01601f191660200182016040528015611b6f5781602001600182028036833780820191505090505b509050600060405180606001604052806040815260200161381a604091399050600181016020830160005b86811015611c135760038101905062ffffff818a015116603f8160121c168401518060081b905060ff603f83600c1c1686015116810190508060081b905060ff603f8360061c1686015116810190508060081b905060ff603f831686015116810190508060e01b90508084526004840193505050611b9a565b506003860660018114611c2d5760028114611c3d57611c48565b613d3d60f01b6002830352611c48565b603d60f81b60018303525b508484525050819450505050505b919050565b611c75828260405180602001604052806000815250611f67565b5050565b611c82826111c1565b611cc1576040517f08c379a0000000000000000000000000000000000000000000000000000000008152600401611cb890613281565b60405180910390fd5b80600660008481526020019081526020016000209080519060200190611ce89291906121a3565b505050565b6001816000016000828254019250508190555050565b611d9d838383604051602401611d1b93929190613143565b6040516020818303038152906040527fe3849f79000000000000000000000000000000000000000000000000000000007bffffffffffffffffffffffffffffffffffffffffffffffffffffffff19166020820180517bffffffffffffffffffffffffffffffffffffffffffffffffffffffff8381831617835250505050611da2565b505050565b60008151905060006a636f6e736f6c652e6c6f679050602083016000808483855afa5050505050565b505050565b6000611df18473ffffffffffffffffffffffffffffffffffffffff16611fc2565b15611f5a578373ffffffffffffffffffffffffffffffffffffffff1663150b7a02611e1a61122d565b8786866040518563ffffffff1660e01b8152600401611e3c9493929190613091565b602060405180830381600087803b158015611e5657600080fd5b505af1925050508015611e8757506040513d601f19601f82011682018060405250810190611e8491906124e7565b60015b611f0a573d8060008114611eb7576040519150601f19603f3d011682016040523d82523d6000602084013e611ebc565b606091505b50600081511415611f02576040517f08c379a0000000000000000000000000000000000000000000000000000000008152600401611ef990613181565b60405180910390fd5b805181602001fd5b63150b7a0260e01b7bffffffffffffffffffffffffffffffffffffffffffffffffffffffff1916817bffffffffffffffffffffffffffffffffffffffffffffffffffffffff191614915050611f5f565b600190505b949350505050565b611f718383611fd5565b611f7e6000848484611dd0565b611fbd576040517f08c379a0000000000000000000000000000000000000000000000000000000008152600401611fb490613181565b60405180910390fd5b505050565b600080823b905060008111915050919050565b600073ffffffffffffffffffffffffffffffffffffffff168273ffffffffffffffffffffffffffffffffffffffff161415612045576040517f08c379a000000000000000000000000000000000000000000000000000000000815260040161203c906132a1565b60405180910390fd5b61204e816111c1565b1561208e576040517f08c379a0000000000000000000000000000000000000000000000000000000008152600401612085906131a1565b60405180910390fd5b61209a60008383611dcb565b6001600360008473ffffffffffffffffffffffffffffffffffffffff1673ffffffffffffffffffffffffffffffffffffffff16815260200190815260200160002060008282546120ea9190613455565b92505081905550816002600083815260200190815260200160002060006101000a81548173ffffffffffffffffffffffffffffffffffffffff021916908373ffffffffffffffffffffffffffffffffffffffff160217905550808273ffffffffffffffffffffffffffffffffffffffff16600073ffffffffffffffffffffffffffffffffffffffff167fddf252ad1be2c89b69c2b068fc378daa952ba7f163c4a11628f55a4df523b3ef60405160405180910390a45050565b8280546121af90613620565b90600052602060002090601f0160209004810192826121d15760008555612218565b82601f106121ea57805160ff1916838001178555612218565b82800160010185558215612218579182015b828111156122175782518255916020019190600101906121fc565b5b5090506122259190612229565b5090565b5b8082111561224257600081600090555060010161222a565b5090565b6000612259612254846133cd565b61339c565b90508281526020810184848401111561227157600080fd5b61227c8482856135de565b509392505050565b60008135905061229381613799565b92915050565b6000813590506122a8816137b0565b92915050565b6000813590506122bd816137c7565b92915050565b6000815190506122d2816137c7565b92915050565b600082601f8301126122e957600080fd5b81356122f9848260208601612246565b91505092915050565b600081359050612311816137de565b92915050565b60006020828403121561232957600080fd5b600061233784828501612284565b91505092915050565b6000806040838503121561235357600080fd5b600061236185828601612284565b925050602061237285828601612284565b9150509250929050565b60008060006060848603121561239157600080fd5b600061239f86828701612284565b93505060206123b086828701612284565b92505060406123c186828701612302565b9150509250925092565b600080600080608085870312156123e157600080fd5b60006123ef87828801612284565b945050602061240087828801612284565b935050604061241187828801612302565b925050606085013567ffffffffffffffff81111561242e57600080fd5b61243a878288016122d8565b91505092959194509250565b6000806040838503121561245957600080fd5b600061246785828601612284565b925050602061247885828601612299565b9150509250929050565b6000806040838503121561249557600080fd5b60006124a385828601612284565b92505060206124b485828601612302565b9150509250929050565b6000602082840312156124d057600080fd5b60006124de848285016122ae565b91505092915050565b6000602082840312156124f957600080fd5b6000612507848285016122c3565b91505092915050565b60006020828403121561252257600080fd5b600061253084828501612302565b91505092915050565b6125428161356a565b82525050565b6125518161357c565b82525050565b600061256282613412565b61256c8185613428565b935061257c8185602086016135ed565b61258581613788565b840191505092915050565b600061259b8261341d565b6125a58185613439565b93506125b58185602086016135ed565b6125be81613788565b840191505092915050565b60006125d48261341d565b6125de818561344a565b93506125ee8185602086016135ed565b80840191505092915050565b6000815461260781613620565b612611818661344a565b9450600182166000811461262c576001811461263d57612670565b60ff19831686528186019350612670565b612646856133fd565b60005b8381101561266857815481890152600182019150602081019050612649565b838801955050505b50505092915050565b6000612686603283613439565b91507f4552433732313a207472616e7366657220746f206e6f6e20455243373231526560008301527f63656976657220696d706c656d656e74657200000000000000000000000000006020830152604082019050919050565b60006126ec601c83613439565b91507f4552433732313a20746f6b656e20616c7265616479206d696e746564000000006000830152602082019050919050565b600061272c600a8361344a565b91507f54484952445f574f5244000000000000000000000000000000000000000000006000830152600a82019050919050565b600061276c602483613439565b91507f4552433732313a207472616e7366657220746f20746865207a65726f2061646460008301527f72657373000000000000000000000000000000000000000000000000000000006020830152604082019050919050565b60006127d2601983613439565b91507f4552433732313a20617070726f766520746f2063616c6c6572000000000000006000830152602082019050919050565b6000612812600b8361344a565b91507f5345434f4e445f574f52440000000000000000000000000000000000000000006000830152600b82019050919050565b6000612852602c83613439565b91507f4552433732313a206f70657261746f7220717565727920666f72206e6f6e657860008301527f697374656e7420746f6b656e00000000000000000000000000000000000000006020830152604082019050919050565b60006128b8600d8361344a565b91507f3c2f746578743e3c2f7376673e000000000000000000000000000000000000006000830152600d82019050919050565b60006128f8603883613439565b91507f4552433732313a20617070726f76652063616c6c6572206973206e6f74206f7760008301527f6e6572206e6f7220617070726f76656420666f7220616c6c00000000000000006020830152604082019050919050565b600061295e602a83613439565b91507f4552433732313a2062616c616e636520717565727920666f7220746865207a6560008301527f726f2061646472657373000000000000000000000000000000000000000000006020830152604082019050919050565b60006129c4602983613439565b91507f4552433732313a206f776e657220717565727920666f72206e6f6e657869737460008301527f656e7420746f6b656e00000000000000000000000000000000000000000000006020830152604082019050919050565b6000612a2a602e83613439565b91507f45524337323155524953746f726167653a2055524920736574206f66206e6f6e60008301527f6578697374656e7420746f6b656e0000000000000000000000000000000000006020830152604082019050919050565b6000612a9060028361344a565b91507f227d0000000000000000000000000000000000000000000000000000000000006000830152600282019050919050565b6000612ad060a08361344a565b91507f222c20226465736372697074696f6e223a202241207665727920756e6465727760008301527f68656c6d696e672c20616e64206d696e696d616c697374696320636f6c6c656360208301527f74696f6e206f6620737175617265732064657363726962696e672028796f757260408301527f29206461696c79206c69666520696e204e657720596f726b2e222c2022696d6160608301527f6765223a2022646174613a696d6167652f7376672b786d6c3b6261736536342c608083015260a082019050919050565b6000612ba8602083613439565b91507f4552433732313a206d696e7420746f20746865207a65726f20616464726573736000830152602082019050919050565b6000612be8603183613439565b91507f45524337323155524953746f726167653a2055524920717565727920666f722060008301527f6e6f6e6578697374656e7420746f6b656e0000000000000000000000000000006020830152604082019050919050565b6000612c4e602c83613439565b91507f4552433732313a20617070726f76656420717565727920666f72206e6f6e657860008301527f697374656e7420746f6b656e00000000000000000000000000000000000000006020830152604082019050919050565b6000612cb4602983613439565b91507f4552433732313a207472616e73666572206f6620746f6b656e2074686174206960008301527f73206e6f74206f776e00000000000000000000000000000000000000000000006020830152604082019050919050565b6000612d1a602f83613439565b91507f4552433732314d657461646174613a2055524920717565727920666f72206e6f60008301527f6e6578697374656e7420746f6b656e00000000000000000000000000000000006020830152604082019050919050565b6000612d80600a8361344a565b91507f7b226e616d65223a2022000000000000000000000000000000000000000000006000830152600a82019050919050565b6000612dc0602183613439565b91507f4552433732313a20617070726f76616c20746f2063757272656e74206f776e6560008301527f72000000000000000000000000000000000000000000000000000000000000006020830152604082019050919050565b6000612e26600a8361344a565b91507f46495253545f574f5244000000000000000000000000000000000000000000006000830152600a82019050919050565b6000612e66601d8361344a565b91507f646174613a6170706c69636174696f6e2f6a736f6e3b6261736536342c0000006000830152601d82019050919050565b6000612ea6603183613439565b91507f4552433732313a207472616e736665722063616c6c6572206973206e6f74206f60008301527f776e6572206e6f7220617070726f7665640000000000000000000000000000006020830152604082019050919050565b612f08816135d4565b82525050565b6000612f1a82846125c9565b915081905092915050565b6000612f3182856125c9565b9150612f3d82846125c9565b91508190509392505050565b6000612f5582866125c9565b9150612f6182856125c9565b9150612f6d82846125c9565b9150819050949350505050565b6000612f8682856125fa565b9150612f9282846125c9565b9150612f9d826128ab565b91508190509392505050565b6000612fb48261271f565b9150612fc082846125c9565b915081905092915050565b6000612fd682612805565b9150612fe282846125c9565b915081905092915050565b6000612ff882612d73565b915061300482856125c9565b915061300f82612ac3565b915061301b82846125c9565b915061302682612a83565b91508190509392505050565b600061303d82612e19565b915061304982846125c9565b915081905092915050565b600061305f82612e59565b915061306b82846125c9565b915081905092915050565b600060208201905061308b6000830184612539565b92915050565b60006080820190506130a66000830187612539565b6130b36020830186612539565b6130c06040830185612eff565b81810360608301526130d28184612557565b905095945050505050565b60006040820190506130f26000830185612539565b6130ff6020830184612eff565b9392505050565b600060208201905061311b6000830184612548565b92915050565b6000602082019050818103600083015261313b8184612590565b905092915050565b6000606082019050818103600083015261315d8186612590565b905061316c6020830185612eff565b6131796040830184612539565b949350505050565b6000602082019050818103600083015261319a81612679565b9050919050565b600060208201905081810360008301526131ba816126df565b9050919050565b600060208201905081810360008301526131da8161275f565b9050919050565b600060208201905081810360008301526131fa816127c5565b9050919050565b6000602082019050818103600083015261321a81612845565b9050919050565b6000602082019050818103600083015261323a816128eb565b9050919050565b6000602082019050818103600083015261325a81612951565b9050919050565b6000602082019050818103600083015261327a816129b7565b9050919050565b6000602082019050818103600083015261329a81612a1d565b9050919050565b600060208201905081810360008301526132ba81612b9b565b9050919050565b600060208201905081810360008301526132da81612bdb565b9050919050565b600060208201905081810360008301526132fa81612c41565b9050919050565b6000602082019050818103600083015261331a81612ca7565b9050919050565b6000602082019050818103600083015261333a81612d0d565b9050919050565b6000602082019050818103600083015261335a81612db3565b9050919050565b6000602082019050818103600083015261337a81612e99565b9050919050565b60006020820190506133966000830184612eff565b92915050565b6000604051905081810181811067ffffffffffffffff821117156133c3576133c2613759565b5b8060405250919050565b600067ffffffffffffffff8211156133e8576133e7613759565b5b601f19601f8301169050602081019050919050565b60008190508160005260206000209050919050565b600081519050919050565b600081519050919050565b600082825260208201905092915050565b600082825260208201905092915050565b600081905092915050565b6000613460826135d4565b915061346b836135d4565b9250827fffffffffffffffffffffffffffffffffffffffffffffffffffffffffffffffff038211156134a05761349f6136cc565b5b828201905092915050565b60006134b6826135d4565b91506134c1836135d4565b9250826134d1576134d06136fb565b5b828204905092915050565b60006134e7826135d4565b91506134f2836135d4565b9250817fffffffffffffffffffffffffffffffffffffffffffffffffffffffffffffffff048311821515161561352b5761352a6136cc565b5b828202905092915050565b6000613541826135d4565b915061354c836135d4565b92508282101561355f5761355e6136cc565b5b828203905092915050565b6000613575826135b4565b9050919050565b60008115159050919050565b60007fffffffff0000000000000000000000000000000000000000000000000000000082169050919050565b600073ffffffffffffffffffffffffffffffffffffffff82169050919050565b6000819050919050565b82818337600083830152505050565b60005b8381101561360b5780820151818401526020810190506135f0565b8381111561361a576000848401525b50505050565b6000600282049050600182168061363857607f821691505b6020821081141561364c5761364b61372a565b5b50919050565b600061365d826135d4565b91507fffffffffffffffffffffffffffffffffffffffffffffffffffffffffffffffff8214156136905761368f6136cc565b5b600182019050919050565b60006136a6826135d4565b91506136b1836135d4565b9250826136c1576136c06136fb565b5b828206905092915050565b7f4e487b7100000000000000000000000000000000000000000000000000000000600052601160045260246000fd5b7f4e487b7100000000000000000000000000000000000000000000000000000000600052601260045260246000fd5b7f4e487b7100000000000000000000000000000000000000000000000000000000600052602260045260246000fd5b7f4e487b7100000000000000000000000000000000000000000000000000000000600052604160045260246000fd5b6000601f19601f8301169050919050565b6137a28161356a565b81146137ad57600080fd5b50565b6137b98161357c565b81146137c457600080fd5b50565b6137d081613588565b81146137db57600080fd5b50565b6137e7816135d4565b81146137f257600080fd5b5056fe416e204e465420772f494420257320686173206265656e206d696e74656420746f2025734142434445464748494a4b4c4d4e4f505152535455565758595a6162636465666768696a6b6c6d6e6f707172737475767778797a303132333435363738392b2fa264697066735822122065b05558752ae127f652d60d53b43bf1cf315f32130a4da4111ab01915d4e28664736f6c634300080000333c73766720786d6c6e733d27687474703a2f2f7777772e77332e6f72672f323030302f73766727207072657365727665417370656374526174696f3d27784d696e594d696e206d656574272076696577426f783d273020302033353020333530273e3c7374796c653e40666f6e742d66616365207b666f6e742d66616d696c793a202770726f6772616d6d65273b207372633a2075726c282768747470733a2f2f6769746875622e636f6d2f6f736361722d6f6e65696c6c2f74656c65706174682f626c6f622f6d61696e2f7075626c69632f666f6e74732f70726f6772616d6d652e776f66663227293b7d3c2f7374796c653e3c7374796c653e2e62617365207b2066696c6c3a2077686974653b20666f6e742d66616d696c793a202770726f6772616d6d65273b20666f6e742d73697a653a20313870783b206c65747465722d73706163696e673a202d302e3570787d3c2f7374796c653e3c726563742077696474683d273130302527206865696768743d2731303025272066696c6c3d27626c61636b27202f3e3c7465787420783d273530252720793d273530252720636c6173733d27626173652720646f6d696e616e742d626173656c696e653d276d6964646c652720746578742d616e63686f723d276d6964646c65273e",
  "linkReferences": {},
  "deployedLinkReferences": {}
}